{
  "_format": "hh-sol-artifact-1",
  "contractName": "NFT",
  "sourceName": "contracts/NFT.sol",
  "abi": [
    {
      "inputs": [
        {
          "internalType": "address",
          "name": "systemContractAddress",
          "type": "address"
        }
      ],
      "stateMutability": "nonpayable",
      "type": "constructor"
    },
    {
      "anonymous": false,
      "inputs": [
        {
          "indexed": true,
          "internalType": "address",
          "name": "owner",
          "type": "address"
        },
        {
          "indexed": true,
          "internalType": "address",
          "name": "approved",
          "type": "address"
        },
        {
          "indexed": true,
          "internalType": "uint256",
          "name": "tokenId",
          "type": "uint256"
        }
      ],
      "name": "Approval",
      "type": "event"
    },
    {
      "anonymous": false,
      "inputs": [
        {
          "indexed": true,
          "internalType": "address",
          "name": "owner",
          "type": "address"
        },
        {
          "indexed": true,
          "internalType": "address",
          "name": "operator",
          "type": "address"
        },
        {
          "indexed": false,
          "internalType": "bool",
          "name": "approved",
          "type": "bool"
        }
      ],
      "name": "ApprovalForAll",
      "type": "event"
    },
    {
      "anonymous": false,
      "inputs": [
        {
          "indexed": true,
          "internalType": "address",
          "name": "from",
          "type": "address"
        },
        {
          "indexed": true,
          "internalType": "address",
          "name": "to",
          "type": "address"
        },
        {
          "indexed": true,
          "internalType": "uint256",
          "name": "tokenId",
          "type": "uint256"
        }
      ],
      "name": "Transfer",
      "type": "event"
    },
    {
      "inputs": [
        {
          "internalType": "address",
          "name": "to",
          "type": "address"
        },
        {
          "internalType": "uint256",
          "name": "tokenId",
          "type": "uint256"
        }
      ],
      "name": "approve",
      "outputs": [],
      "stateMutability": "nonpayable",
      "type": "function"
    },
    {
      "inputs": [
        {
          "internalType": "address",
          "name": "owner",
          "type": "address"
        }
      ],
      "name": "balanceOf",
      "outputs": [
        {
          "internalType": "uint256",
          "name": "",
          "type": "uint256"
        }
      ],
      "stateMutability": "view",
      "type": "function"
    },
    {
      "inputs": [
        {
          "internalType": "uint256",
          "name": "tokenId",
          "type": "uint256"
        },
        {
          "internalType": "bytes",
          "name": "recipient",
          "type": "bytes"
        }
      ],
      "name": "burnNFT",
      "outputs": [],
      "stateMutability": "nonpayable",
      "type": "function"
    },
    {
      "inputs": [
        {
          "internalType": "uint256",
          "name": "tokenId",
          "type": "uint256"
        }
      ],
      "name": "getApproved",
      "outputs": [
        {
          "internalType": "address",
          "name": "",
          "type": "address"
        }
      ],
      "stateMutability": "view",
      "type": "function"
    },
    {
      "inputs": [
        {
          "internalType": "address",
          "name": "owner",
          "type": "address"
        },
        {
          "internalType": "address",
          "name": "operator",
          "type": "address"
        }
      ],
      "name": "isApprovedForAll",
      "outputs": [
        {
          "internalType": "bool",
          "name": "",
          "type": "bool"
        }
      ],
      "stateMutability": "view",
      "type": "function"
    },
    {
      "inputs": [],
      "name": "name",
      "outputs": [
        {
          "internalType": "string",
          "name": "",
          "type": "string"
        }
      ],
      "stateMutability": "view",
      "type": "function"
    },
    {
      "inputs": [
        {
          "components": [
            {
              "internalType": "bytes",
              "name": "origin",
              "type": "bytes"
            },
            {
              "internalType": "address",
              "name": "sender",
              "type": "address"
            },
            {
              "internalType": "uint256",
              "name": "chainID",
              "type": "uint256"
            }
          ],
          "internalType": "struct zContext",
          "name": "context",
          "type": "tuple"
        },
        {
          "internalType": "address",
          "name": "zrc20",
          "type": "address"
        },
        {
          "internalType": "uint256",
          "name": "amount",
          "type": "uint256"
        },
        {
          "internalType": "bytes",
          "name": "message",
          "type": "bytes"
        }
      ],
      "name": "onCrossChainCall",
      "outputs": [],
      "stateMutability": "nonpayable",
      "type": "function"
    },
    {
      "inputs": [
        {
          "internalType": "uint256",
          "name": "tokenId",
          "type": "uint256"
        }
      ],
      "name": "ownerOf",
      "outputs": [
        {
          "internalType": "address",
          "name": "",
          "type": "address"
        }
      ],
      "stateMutability": "view",
      "type": "function"
    },
    {
      "inputs": [
        {
          "internalType": "address",
          "name": "from",
          "type": "address"
        },
        {
          "internalType": "address",
          "name": "to",
          "type": "address"
        },
        {
          "internalType": "uint256",
          "name": "tokenId",
          "type": "uint256"
        }
      ],
      "name": "safeTransferFrom",
      "outputs": [],
      "stateMutability": "nonpayable",
      "type": "function"
    },
    {
      "inputs": [
        {
          "internalType": "address",
          "name": "from",
          "type": "address"
        },
        {
          "internalType": "address",
          "name": "to",
          "type": "address"
        },
        {
          "internalType": "uint256",
          "name": "tokenId",
          "type": "uint256"
        },
        {
          "internalType": "bytes",
          "name": "data",
          "type": "bytes"
        }
      ],
      "name": "safeTransferFrom",
      "outputs": [],
      "stateMutability": "nonpayable",
      "type": "function"
    },
    {
      "inputs": [
        {
          "internalType": "address",
          "name": "operator",
          "type": "address"
        },
        {
          "internalType": "bool",
          "name": "approved",
          "type": "bool"
        }
      ],
      "name": "setApprovalForAll",
      "outputs": [],
      "stateMutability": "nonpayable",
      "type": "function"
    },
    {
      "inputs": [
        {
          "internalType": "bytes4",
          "name": "interfaceId",
          "type": "bytes4"
        }
      ],
      "name": "supportsInterface",
      "outputs": [
        {
          "internalType": "bool",
          "name": "",
          "type": "bool"
        }
      ],
      "stateMutability": "view",
      "type": "function"
    },
    {
      "inputs": [],
      "name": "symbol",
      "outputs": [
        {
          "internalType": "string",
          "name": "",
          "type": "string"
        }
      ],
      "stateMutability": "view",
      "type": "function"
    },
    {
      "inputs": [],
      "name": "systemContract",
      "outputs": [
        {
          "internalType": "contract SystemContract",
          "name": "",
          "type": "address"
        }
      ],
      "stateMutability": "view",
      "type": "function"
    },
    {
      "inputs": [
        {
          "internalType": "uint256",
          "name": "",
          "type": "uint256"
        }
      ],
      "name": "tokenAmounts",
      "outputs": [
        {
          "internalType": "uint256",
          "name": "",
          "type": "uint256"
        }
      ],
      "stateMutability": "view",
      "type": "function"
    },
    {
      "inputs": [
        {
          "internalType": "uint256",
          "name": "",
          "type": "uint256"
        }
      ],
      "name": "tokenChains",
      "outputs": [
        {
          "internalType": "uint256",
          "name": "",
          "type": "uint256"
        }
      ],
      "stateMutability": "view",
      "type": "function"
    },
    {
      "inputs": [
        {
          "internalType": "uint256",
          "name": "tokenId",
          "type": "uint256"
        }
      ],
      "name": "tokenURI",
      "outputs": [
        {
          "internalType": "string",
          "name": "",
          "type": "string"
        }
      ],
      "stateMutability": "view",
      "type": "function"
    },
    {
      "inputs": [
        {
          "internalType": "address",
          "name": "from",
          "type": "address"
        },
        {
          "internalType": "address",
          "name": "to",
          "type": "address"
        },
        {
          "internalType": "uint256",
          "name": "tokenId",
          "type": "uint256"
        }
      ],
      "name": "transferFrom",
      "outputs": [],
      "stateMutability": "nonpayable",
      "type": "function"
    }
  ],
  "bytecode": "0x60a06040523480156200001157600080fd5b506040516200349b3803806200349b8339818101604052810190620000379190620001dc565b6040518060400160405280600581526020017f4d794e46540000000000000000000000000000000000000000000000000000008152506040518060400160405280600481526020017f4d4e4654000000000000000000000000000000000000000000000000000000008152508160009080519060200190620000bb92919062000115565b508060019080519060200190620000d492919062000115565b5050508073ffffffffffffffffffffffffffffffffffffffff1660808173ffffffffffffffffffffffffffffffffffffffff1660601b8152505050620002c6565b828054620001239062000242565b90600052602060002090601f01602090048101928262000147576000855562000193565b82601f106200016257805160ff191683800117855562000193565b8280016001018555821562000193579182015b828111156200019257825182559160200191906001019062000175565b5b509050620001a29190620001a6565b5090565b5b80821115620001c1576000816000905550600101620001a7565b5090565b600081519050620001d681620002ac565b92915050565b600060208284031215620001f557620001f4620002a7565b5b60006200020584828501620001c5565b91505092915050565b60006200021b8262000222565b9050919050565b600073ffffffffffffffffffffffffffffffffffffffff82169050919050565b600060028204905060018216806200025b57607f821691505b6020821081141562000272576200027162000278565b5b50919050565b7f4e487b7100000000000000000000000000000000000000000000000000000000600052602260045260246000fd5b600080fd5b620002b7816200020e565b8114620002c357600080fd5b50565b60805160601c6131a8620002f36000396000818161098601528181610a640152610d1b01526131a86000f3fe608060405234801561001057600080fd5b50600436106101165760003560e01c806395d89b41116100a2578063bb88b76911610071578063bb88b76914610303578063c87b56dd14610321578063d6b40e2714610351578063de43156e1461036d578063e985e9c51461038957610116565b806395d89b411461027d5780639ad280c01461029b578063a22cb465146102cb578063b88d4fde146102e757610116565b80630ba111c2116100e95780630ba111c2146101b557806323b872dd146101e557806342842e0e146102015780636352211e1461021d57806370a082311461024d57610116565b806301ffc9a71461011b57806306fdde031461014b578063081812fc14610169578063095ea7b314610199575b600080fd5b610135600480360381019061013091906122dd565b6103b9565b60405161014291906127be565b60405180910390f35b61015361049b565b6040516101609190612824565b60405180910390f35b610183600480360381019061017e91906123db565b61052d565b604051610190919061272e565b60405180910390f35b6101b360048036038101906101ae9190612230565b610573565b005b6101cf60048036038101906101ca91906123db565b61068b565b6040516101dc91906129e6565b60405180910390f35b6101ff60048036038101906101fa919061211a565b6106a3565b005b61021b6004803603810190610216919061211a565b610703565b005b610237600480360381019061023291906123db565b610723565b604051610244919061272e565b60405180910390f35b61026760048036038101906102629190612053565b6107aa565b60405161027491906129e6565b60405180910390f35b610285610862565b6040516102929190612824565b60405180910390f35b6102b560048036038101906102b091906123db565b6108f4565b6040516102c291906129e6565b60405180910390f35b6102e560048036038101906102e091906121f0565b61090c565b005b61030160048036038101906102fc919061216d565b610922565b005b61030b610984565b6040516103189190612809565b60405180910390f35b61033b600480360381019061033691906123db565b6109a8565b6040516103489190612824565b60405180910390f35b61036b60048036038101906103669190612408565b610a10565b005b61038760048036038101906103829190612337565b610d19565b005b6103a3600480360381019061039e91906120da565b610df3565b6040516103b091906127be565b60405180910390f35b60007f80ac58cd000000000000000000000000000000000000000000000000000000007bffffffffffffffffffffffffffffffffffffffffffffffffffffffff1916827bffffffffffffffffffffffffffffffffffffffffffffffffffffffff1916148061048457507f5b5e139f000000000000000000000000000000000000000000000000000000007bffffffffffffffffffffffffffffffffffffffffffffffffffffffff1916827bffffffffffffffffffffffffffffffffffffffffffffffffffffffff1916145b80610494575061049382610e87565b5b9050919050565b6060600080546104aa90612c5d565b80601f01602080910402602001604051908101604052809291908181526020018280546104d690612c5d565b80156105235780601f106104f857610100808354040283529160200191610523565b820191906000526020600020905b81548152906001019060200180831161050657829003601f168201915b5050505050905090565b600061053882610ef1565b6004600083815260200190815260200160002060009054906101000a900473ffffffffffffffffffffffffffffffffffffffff169050919050565b600061057e82610723565b90508073ffffffffffffffffffffffffffffffffffffffff168373ffffffffffffffffffffffffffffffffffffffff1614156105ef576040517f08c379a00000000000000000000000000000000000000000000000000000000081526004016105e690612986565b60405180910390fd5b8073ffffffffffffffffffffffffffffffffffffffff1661060e610f3c565b73ffffffffffffffffffffffffffffffffffffffff16148061063d575061063c81610637610f3c565b610df3565b5b61067c576040517f08c379a0000000000000000000000000000000000000000000000000000000008152600401610673906129c6565b60405180910390fd5b6106868383610f44565b505050565b60086020528060005260406000206000915090505481565b6106b46106ae610f3c565b82610ffd565b6106f3576040517f08c379a00000000000000000000000000000000000000000000000000000000081526004016106ea90612846565b60405180910390fd5b6106fe838383611092565b505050565b61071e83838360405180602001604052806000815250610922565b505050565b60008061072f8361138c565b9050600073ffffffffffffffffffffffffffffffffffffffff168173ffffffffffffffffffffffffffffffffffffffff1614156107a1576040517f08c379a000000000000000000000000000000000000000000000000000000000815260040161079890612966565b60405180910390fd5b80915050919050565b60008073ffffffffffffffffffffffffffffffffffffffff168273ffffffffffffffffffffffffffffffffffffffff16141561081b576040517f08c379a000000000000000000000000000000000000000000000000000000000815260040161081290612926565b60405180910390fd5b600360008373ffffffffffffffffffffffffffffffffffffffff1673ffffffffffffffffffffffffffffffffffffffff168152602001908152602001600020549050919050565b60606001805461087190612c5d565b80601f016020809104026020016040519081016040528092919081815260200182805461089d90612c5d565b80156108ea5780601f106108bf576101008083540402835291602001916108ea565b820191906000526020600020905b8154815290600101906020018083116108cd57829003601f168201915b5050505050905090565b60076020528060005260406000206000915090505481565b61091e610917610f3c565b83836113c9565b5050565b61093361092d610f3c565b83610ffd565b610972576040517f08c379a000000000000000000000000000000000000000000000000000000000815260040161096990612846565b60405180910390fd5b61097e84848484611536565b50505050565b7f000000000000000000000000000000000000000000000000000000000000000081565b60606109b382610ef1565b60006109bd611592565b905060008151116109dd5760405180602001604052806000815250610a08565b806109e7846115a9565b6040516020016109f892919061270a565b6040516020818303038152906040525b915050919050565b610a21610a1b610f3c565b83610ffd565b610a60576040517f08c379a0000000000000000000000000000000000000000000000000000000008152600401610a57906129a6565b60405180910390fd5b60007f000000000000000000000000000000000000000000000000000000000000000073ffffffffffffffffffffffffffffffffffffffff16630be1554760086000868152602001908152602001600020546040518263ffffffff1660e01b8152600401610ace91906129e6565b60206040518083038186803b158015610ae657600080fd5b505afa158015610afa573d6000803e3d6000fd5b505050506040513d601f19601f82011682018060405250810190610b1e9190612080565b905060008173ffffffffffffffffffffffffffffffffffffffff1663d9eeebed6040518163ffffffff1660e01b8152600401604080518083038186803b158015610b6757600080fd5b505afa158015610b7b573d6000803e3d6000fd5b505050506040513d601f19601f82011682018060405250810190610b9f9190612270565b9150508173ffffffffffffffffffffffffffffffffffffffff1663095ea7b383836040518363ffffffff1660e01b8152600401610bdd929190612795565b602060405180830381600087803b158015610bf757600080fd5b505af1158015610c0b573d6000803e3d6000fd5b505050506040513d601f19601f82011682018060405250810190610c2f91906122b0565b508173ffffffffffffffffffffffffffffffffffffffff1663c701262684836007600089815260200190815260200160002054610c6c9190612b2b565b6040518363ffffffff1660e01b8152600401610c899291906127d9565b602060405180830381600087803b158015610ca357600080fd5b505af1158015610cb7573d6000803e3d6000fd5b505050506040513d601f19601f82011682018060405250810190610cdb91906122b0565b50610ce584611681565b6007600085815260200190815260200160002060009055600860008581526020019081526020016000206000905550505050565b7f000000000000000000000000000000000000000000000000000000000000000073ffffffffffffffffffffffffffffffffffffffff163373ffffffffffffffffffffffffffffffffffffffff1614610da7576040517f08c379a0000000000000000000000000000000000000000000000000000000008152600401610d9e90612886565b60405180910390fd5b600061479c86604001351415610dca57610dc3838360006117cf565b9050610ddc565b8282810190610dd991906120ad565b90505b610deb81876040013586611844565b505050505050565b6000600560008473ffffffffffffffffffffffffffffffffffffffff1673ffffffffffffffffffffffffffffffffffffffff16815260200190815260200160002060008373ffffffffffffffffffffffffffffffffffffffff1673ffffffffffffffffffffffffffffffffffffffff16815260200190815260200160002060009054906101000a900460ff16905092915050565b60007f01ffc9a7000000000000000000000000000000000000000000000000000000007bffffffffffffffffffffffffffffffffffffffffffffffffffffffff1916827bffffffffffffffffffffffffffffffffffffffffffffffffffffffff1916149050919050565b610efa8161189c565b610f39576040517f08c379a0000000000000000000000000000000000000000000000000000000008152600401610f3090612966565b60405180910390fd5b50565b600033905090565b816004600083815260200190815260200160002060006101000a81548173ffffffffffffffffffffffffffffffffffffffff021916908373ffffffffffffffffffffffffffffffffffffffff160217905550808273ffffffffffffffffffffffffffffffffffffffff16610fb783610723565b73ffffffffffffffffffffffffffffffffffffffff167f8c5be1e5ebec7d5bd14f71427d1e84f3dd0314c0f7b2291e5b200ac8c7c3b92560405160405180910390a45050565b60008061100983610723565b90508073ffffffffffffffffffffffffffffffffffffffff168473ffffffffffffffffffffffffffffffffffffffff16148061104b575061104a8185610df3565b5b8061108957508373ffffffffffffffffffffffffffffffffffffffff166110718461052d565b73ffffffffffffffffffffffffffffffffffffffff16145b91505092915050565b8273ffffffffffffffffffffffffffffffffffffffff166110b282610723565b73ffffffffffffffffffffffffffffffffffffffff1614611108576040517f08c379a00000000000000000000000000000000000000000000000000000000081526004016110ff906128a6565b60405180910390fd5b600073ffffffffffffffffffffffffffffffffffffffff168273ffffffffffffffffffffffffffffffffffffffff161415611178576040517f08c379a000000000000000000000000000000000000000000000000000000000815260040161116f906128e6565b60405180910390fd5b61118583838360016118dd565b8273ffffffffffffffffffffffffffffffffffffffff166111a582610723565b73ffffffffffffffffffffffffffffffffffffffff16146111fb576040517f08c379a00000000000000000000000000000000000000000000000000000000081526004016111f2906128a6565b60405180910390fd5b6004600082815260200190815260200160002060006101000a81549073ffffffffffffffffffffffffffffffffffffffff02191690556001600360008573ffffffffffffffffffffffffffffffffffffffff1673ffffffffffffffffffffffffffffffffffffffff168152602001908152602001600020600082825403925050819055506001600360008473ffffffffffffffffffffffffffffffffffffffff1673ffffffffffffffffffffffffffffffffffffffff16815260200190815260200160002060008282540192505081905550816002600083815260200190815260200160002060006101000a81548173ffffffffffffffffffffffffffffffffffffffff021916908373ffffffffffffffffffffffffffffffffffffffff160217905550808273ffffffffffffffffffffffffffffffffffffffff168473ffffffffffffffffffffffffffffffffffffffff167fddf252ad1be2c89b69c2b068fc378daa952ba7f163c4a11628f55a4df523b3ef60405160405180910390a461138783838360016118e3565b505050565b60006002600083815260200190815260200160002060009054906101000a900473ffffffffffffffffffffffffffffffffffffffff169050919050565b8173ffffffffffffffffffffffffffffffffffffffff168373ffffffffffffffffffffffffffffffffffffffff161415611438576040517f08c379a000000000000000000000000000000000000000000000000000000000815260040161142f90612906565b60405180910390fd5b80600560008573ffffffffffffffffffffffffffffffffffffffff1673ffffffffffffffffffffffffffffffffffffffff16815260200190815260200160002060008473ffffffffffffffffffffffffffffffffffffffff1673ffffffffffffffffffffffffffffffffffffffff16815260200190815260200160002060006101000a81548160ff0219169083151502179055508173ffffffffffffffffffffffffffffffffffffffff168373ffffffffffffffffffffffffffffffffffffffff167f17307eab39ab6107e8899845ad3d59bd9653f200f220920489ca2b5937696c318360405161152991906127be565b60405180910390a3505050565b611541848484611092565b61154d848484846118e9565b61158c576040517f08c379a000000000000000000000000000000000000000000000000000000000815260040161158390612866565b60405180910390fd5b50505050565b606060405180602001604052806000815250905090565b6060600060016115b884611a80565b01905060008167ffffffffffffffff8111156115d7576115d6612d4d565b5b6040519080825280601f01601f1916602001820160405280156116095781602001600182028036833780820191505090505b509050600082602001820190505b600115611676578080600190039150507f3031323334353637383961626364656600000000000000000000000000000000600a86061a8153600a85816116605761165f612cef565b5b049450600085141561167157611676565b611617565b819350505050919050565b600061168c82610723565b905061169c8160008460016118dd565b6116a582610723565b90506004600083815260200190815260200160002060006101000a81549073ffffffffffffffffffffffffffffffffffffffff02191690556001600360008373ffffffffffffffffffffffffffffffffffffffff1673ffffffffffffffffffffffffffffffffffffffff168152602001908152602001600020600082825403925050819055506002600083815260200190815260200160002060006101000a81549073ffffffffffffffffffffffffffffffffffffffff021916905581600073ffffffffffffffffffffffffffffffffffffffff168273ffffffffffffffffffffffffffffffffffffffff167fddf252ad1be2c89b69c2b068fc378daa952ba7f163c4a11628f55a4df523b3ef60405160405180910390a46117cb8160008460016118e3565b5050565b600080848484906014866117e39190612ad5565b926117f093929190612a9a565b8080601f016020809104026020016040519081016040528093929190818152602001838380828437600081840152601f19601f82011690508083019250505050505050905060148101519150509392505050565b60006118506006611bd3565b905061185c8482611be1565b8260086000838152602001908152602001600020819055508160076000838152602001908152602001600020819055506118966006611bff565b50505050565b60008073ffffffffffffffffffffffffffffffffffffffff166118be8361138c565b73ffffffffffffffffffffffffffffffffffffffff1614159050919050565b50505050565b50505050565b600061190a8473ffffffffffffffffffffffffffffffffffffffff16611c15565b15611a73578373ffffffffffffffffffffffffffffffffffffffff1663150b7a02611933610f3c565b8786866040518563ffffffff1660e01b81526004016119559493929190612749565b602060405180830381600087803b15801561196f57600080fd5b505af19250505080156119a057506040513d601f19601f8201168201806040525081019061199d919061230a565b60015b611a23573d80600081146119d0576040519150601f19603f3d011682016040523d82523d6000602084013e6119d5565b606091505b50600081511415611a1b576040517f08c379a0000000000000000000000000000000000000000000000000000000008152600401611a1290612866565b60405180910390fd5b805181602001fd5b63150b7a0260e01b7bffffffffffffffffffffffffffffffffffffffffffffffffffffffff1916817bffffffffffffffffffffffffffffffffffffffffffffffffffffffff191614915050611a78565b600190505b949350505050565b600080600090507a184f03e93ff9f4daa797ed6e38ed64bf6a1f0100000000000000008310611ade577a184f03e93ff9f4daa797ed6e38ed64bf6a1f0100000000000000008381611ad457611ad3612cef565b5b0492506040810190505b6d04ee2d6d415b85acef81000000008310611b1b576d04ee2d6d415b85acef81000000008381611b1157611b10612cef565b5b0492506020810190505b662386f26fc100008310611b4a57662386f26fc100008381611b4057611b3f612cef565b5b0492506010810190505b6305f5e1008310611b73576305f5e1008381611b6957611b68612cef565b5b0492506008810190505b6127108310611b98576127108381611b8e57611b8d612cef565b5b0492506004810190505b60648310611bbb5760648381611bb157611bb0612cef565b5b0492506002810190505b600a8310611bca576001810190505b80915050919050565b600081600001549050919050565b611bfb828260405180602001604052806000815250611c38565b5050565b6001816000016000828254019250508190555050565b6000808273ffffffffffffffffffffffffffffffffffffffff163b119050919050565b611c428383611c93565b611c4f60008484846118e9565b611c8e576040517f08c379a0000000000000000000000000000000000000000000000000000000008152600401611c8590612866565b60405180910390fd5b505050565b600073ffffffffffffffffffffffffffffffffffffffff168273ffffffffffffffffffffffffffffffffffffffff161415611d03576040517f08c379a0000000000000000000000000000000000000000000000000000000008152600401611cfa90612946565b60405180910390fd5b611d0c8161189c565b15611d4c576040517f08c379a0000000000000000000000000000000000000000000000000000000008152600401611d43906128c6565b60405180910390fd5b611d5a6000838360016118dd565b611d638161189c565b15611da3576040517f08c379a0000000000000000000000000000000000000000000000000000000008152600401611d9a906128c6565b60405180910390fd5b6001600360008473ffffffffffffffffffffffffffffffffffffffff1673ffffffffffffffffffffffffffffffffffffffff16815260200190815260200160002060008282540192505081905550816002600083815260200190815260200160002060006101000a81548173ffffffffffffffffffffffffffffffffffffffff021916908373ffffffffffffffffffffffffffffffffffffffff160217905550808273ffffffffffffffffffffffffffffffffffffffff16600073ffffffffffffffffffffffffffffffffffffffff167fddf252ad1be2c89b69c2b068fc378daa952ba7f163c4a11628f55a4df523b3ef60405160405180910390a4611ead6000838360016118e3565b5050565b6000611ec4611ebf84612a26565b612a01565b905082815260208101848484011115611ee057611edf612d9a565b5b611eeb848285612c1b565b509392505050565b600081359050611f02816130ff565b92915050565b600081519050611f17816130ff565b92915050565b600081359050611f2c81613116565b92915050565b600081359050611f418161312d565b92915050565b600081519050611f568161312d565b92915050565b600081359050611f6b81613144565b92915050565b600081519050611f8081613144565b92915050565b60008083601f840112611f9c57611f9b612d81565b5b8235905067ffffffffffffffff811115611fb957611fb8612d7c565b5b602083019150836001820283011115611fd557611fd4612d95565b5b9250929050565b600082601f830112611ff157611ff0612d81565b5b8135612001848260208601611eb1565b91505092915050565b6000606082840312156120205761201f612d86565b5b81905092915050565b6000813590506120388161315b565b92915050565b60008151905061204d8161315b565b92915050565b60006020828403121561206957612068612da4565b5b600061207784828501611ef3565b91505092915050565b60006020828403121561209657612095612da4565b5b60006120a484828501611f08565b91505092915050565b6000602082840312156120c3576120c2612da4565b5b60006120d184828501611f1d565b91505092915050565b600080604083850312156120f1576120f0612da4565b5b60006120ff85828601611ef3565b925050602061211085828601611ef3565b9150509250929050565b60008060006060848603121561213357612132612da4565b5b600061214186828701611ef3565b935050602061215286828701611ef3565b925050604061216386828701612029565b9150509250925092565b6000806000806080858703121561218757612186612da4565b5b600061219587828801611ef3565b94505060206121a687828801611ef3565b93505060406121b787828801612029565b925050606085013567ffffffffffffffff8111156121d8576121d7612d9f565b5b6121e487828801611fdc565b91505092959194509250565b6000806040838503121561220757612206612da4565b5b600061221585828601611ef3565b925050602061222685828601611f32565b9150509250929050565b6000806040838503121561224757612246612da4565b5b600061225585828601611ef3565b925050602061226685828601612029565b9150509250929050565b6000806040838503121561228757612286612da4565b5b600061229585828601611f08565b92505060206122a68582860161203e565b9150509250929050565b6000602082840312156122c6576122c5612da4565b5b60006122d484828501611f47565b91505092915050565b6000602082840312156122f3576122f2612da4565b5b600061230184828501611f5c565b91505092915050565b6000602082840312156123205761231f612da4565b5b600061232e84828501611f71565b91505092915050565b60008060008060006080868803121561235357612352612da4565b5b600086013567ffffffffffffffff81111561237157612370612d9f565b5b61237d8882890161200a565b955050602061238e88828901611ef3565b945050604061239f88828901612029565b935050606086013567ffffffffffffffff8111156123c0576123bf612d9f565b5b6123cc88828901611f86565b92509250509295509295909350565b6000602082840312156123f1576123f0612da4565b5b60006123ff84828501612029565b91505092915050565b6000806040838503121561241f5761241e612da4565b5b600061242d85828601612029565b925050602083013567ffffffffffffffff81111561244e5761244d612d9f565b5b61245a85828601611fdc565b9150509250929050565b61246d81612b5f565b82525050565b61247c81612b83565b82525050565b600061248d82612a57565b6124978185612a6d565b93506124a7818560208601612c2a565b6124b081612da9565b840191505092915050565b6124c481612be5565b82525050565b60006124d582612a62565b6124df8185612a7e565b93506124ef818560208601612c2a565b6124f881612da9565b840191505092915050565b600061250e82612a62565b6125188185612a8f565b9350612528818560208601612c2a565b80840191505092915050565b6000612541602d83612a7e565b915061254c82612dba565b604082019050919050565b6000612564603283612a7e565b915061256f82612e09565b604082019050919050565b6000612587602b83612a7e565b915061259282612e58565b604082019050919050565b60006125aa602583612a7e565b91506125b582612ea7565b604082019050919050565b60006125cd601c83612a7e565b91506125d882612ef6565b602082019050919050565b60006125f0602483612a7e565b91506125fb82612f1f565b604082019050919050565b6000612613601983612a7e565b915061261e82612f6e565b602082019050919050565b6000612636602983612a7e565b915061264182612f97565b604082019050919050565b6000612659602083612a7e565b915061266482612fe6565b602082019050919050565b600061267c601883612a7e565b91506126878261300f565b602082019050919050565b600061269f602183612a7e565b91506126aa82613038565b604082019050919050565b60006126c2602083612a7e565b91506126cd82613087565b602082019050919050565b60006126e5603d83612a7e565b91506126f0826130b0565b604082019050919050565b61270481612bdb565b82525050565b60006127168285612503565b91506127228284612503565b91508190509392505050565b60006020820190506127436000830184612464565b92915050565b600060808201905061275e6000830187612464565b61276b6020830186612464565b61277860408301856126fb565b818103606083015261278a8184612482565b905095945050505050565b60006040820190506127aa6000830185612464565b6127b760208301846126fb565b9392505050565b60006020820190506127d36000830184612473565b92915050565b600060408201905081810360008301526127f38185612482565b905061280260208301846126fb565b9392505050565b600060208201905061281e60008301846124bb565b92915050565b6000602082019050818103600083015261283e81846124ca565b905092915050565b6000602082019050818103600083015261285f81612534565b9050919050565b6000602082019050818103600083015261287f81612557565b9050919050565b6000602082019050818103600083015261289f8161257a565b9050919050565b600060208201905081810360008301526128bf8161259d565b9050919050565b600060208201905081810360008301526128df816125c0565b9050919050565b600060208201905081810360008301526128ff816125e3565b9050919050565b6000602082019050818103600083015261291f81612606565b9050919050565b6000602082019050818103600083015261293f81612629565b9050919050565b6000602082019050818103600083015261295f8161264c565b9050919050565b6000602082019050818103600083015261297f8161266f565b9050919050565b6000602082019050818103600083015261299f81612692565b9050919050565b600060208201905081810360008301526129bf816126b5565b9050919050565b600060208201905081810360008301526129df816126d8565b9050919050565b60006020820190506129fb60008301846126fb565b92915050565b6000612a0b612a1c565b9050612a178282612c8f565b919050565b6000604051905090565b600067ffffffffffffffff821115612a4157612a40612d4d565b5b612a4a82612da9565b9050602081019050919050565b600081519050919050565b600081519050919050565b600082825260208201905092915050565b600082825260208201905092915050565b600081905092915050565b60008085851115612aae57612aad612d90565b5b83861115612abf57612abe612d8b565b5b6001850283019150848603905094509492505050565b6000612ae082612bdb565b9150612aeb83612bdb565b9250827fffffffffffffffffffffffffffffffffffffffffffffffffffffffffffffffff03821115612b2057612b1f612cc0565b5b828201905092915050565b6000612b3682612bdb565b9150612b4183612bdb565b925082821015612b5457612b53612cc0565b5b828203905092915050565b6000612b6a82612bbb565b9050919050565b6000612b7c82612bbb565b9050919050565b60008115159050919050565b60007fffffffff0000000000000000000000000000000000000000000000000000000082169050919050565b600073ffffffffffffffffffffffffffffffffffffffff82169050919050565b6000819050919050565b6000612bf082612bf7565b9050919050565b6000612c0282612c09565b9050919050565b6000612c1482612bbb565b9050919050565b82818337600083830152505050565b60005b83811015612c48578082015181840152602081019050612c2d565b83811115612c57576000848401525b50505050565b60006002820490506001821680612c7557607f821691505b60208210811415612c8957612c88612d1e565b5b50919050565b612c9882612da9565b810181811067ffffffffffffffff82111715612cb757612cb6612d4d565b5b80604052505050565b7f4e487b7100000000000000000000000000000000000000000000000000000000600052601160045260246000fd5b7f4e487b7100000000000000000000000000000000000000000000000000000000600052601260045260246000fd5b7f4e487b7100000000000000000000000000000000000000000000000000000000600052602260045260246000fd5b7f4e487b7100000000000000000000000000000000000000000000000000000000600052604160045260246000fd5b600080fd5b600080fd5b600080fd5b600080fd5b600080fd5b600080fd5b600080fd5b600080fd5b600080fd5b6000601f19601f8301169050919050565b7f4552433732313a2063616c6c6572206973206e6f7420746f6b656e206f776e6560008201527f72206f7220617070726f76656400000000000000000000000000000000000000602082015250565b7f4552433732313a207472616e7366657220746f206e6f6e20455243373231526560008201527f63656976657220696d706c656d656e7465720000000000000000000000000000602082015250565b7f4f6e6c792073797374656d20636f6e74726163742063616e2063616c6c20746860008201527f69732066756e6374696f6e000000000000000000000000000000000000000000602082015250565b7f4552433732313a207472616e736665722066726f6d20696e636f72726563742060008201527f6f776e6572000000000000000000000000000000000000000000000000000000602082015250565b7f4552433732313a20746f6b656e20616c7265616479206d696e74656400000000600082015250565b7f4552433732313a207472616e7366657220746f20746865207a65726f2061646460008201527f7265737300000000000000000000000000000000000000000000000000000000602082015250565b7f4552433732313a20617070726f766520746f2063616c6c657200000000000000600082015250565b7f4552433732313a2061646472657373207a65726f206973206e6f74206120766160008201527f6c6964206f776e65720000000000000000000000000000000000000000000000602082015250565b7f4552433732313a206d696e7420746f20746865207a65726f2061646472657373600082015250565b7f4552433732313a20696e76616c696420746f6b656e2049440000000000000000600082015250565b7f4552433732313a20617070726f76616c20746f2063757272656e74206f776e6560008201527f7200000000000000000000000000000000000000000000000000000000000000602082015250565b7f43616c6c6572206973206e6f74206f776e6572206e6f7220617070726f766564600082015250565b7f4552433732313a20617070726f76652063616c6c6572206973206e6f7420746f60008201527f6b656e206f776e6572206f7220617070726f76656420666f7220616c6c000000602082015250565b61310881612b5f565b811461311357600080fd5b50565b61311f81612b71565b811461312a57600080fd5b50565b61313681612b83565b811461314157600080fd5b50565b61314d81612b8f565b811461315857600080fd5b50565b61316481612bdb565b811461316f57600080fd5b5056fea264697066735822122061cb1a75c64f08702c17c7c84ca6306421fd4497dcf608f88d2e41a6d0fff6bd64736f6c63430008070033",
  "linkReferences": {},
  "deployedLinkReferences": {}
}